:10100000C0310020552C0000E98A0000292C000086
:10101000292C0000292C0000292C000000000000D1
:101020000000000000000000000000003528000063
:10103000292C000000000000D1270000292C00000E
:10104000F1280000F1280000F1280000F12800003C
:10105000F1280000F1280000F1280000F12800002C
:10106000F1280000F1280000F1280000F12800001C
:10107000F1280000F1280000F1280000F12800000C
:10108000F1280000F1280000F1280000F1280000FC
:10109000F1280000F1280000F1280000F1280000EC
:1010A000F1280000F1280000F1280000F1280000DC
:1010B000F1280000F1280000F1280000F1280000CC
:1010C000F1280000F1280000F1280000F1280000BC
:1010D000F1280000F1280000F1280000F1280000AC
:1010E000F1280000F1280000F1280000F12800009C
:1010F000F1280000F1280000F1280000F12800008C
:1011000053B94AB9002908BF00281CBF4FF0FF316E
:101110004FF0FF3000F00CB8ADF1080C6DE904CED3
:1011200000F008F8DDF804E0DDE9022304B07047C0
:10113000704700BF2DE9F04786468C460846089E5A
:10114000154674461946002B40F0C2808542B2FA1B
:1011500082F245D94AB1C2F1200300FA02FC2EFA0C
:1011600003F3954043EA0C0C94404FEA154EA8B2A5
:10117000BCFBFEF8230C0EFB18CC08FB00F943EA7D
:101180000C43994528D9EB1808F1FF3704D299454B
:1011900002D9A8F102072B44A3EB0903A4B2B3FBC5
:1011A000FEFC0EFB1C330CFB00F044EA0344A0429F
:1011B00014D92C190CF1FF3304D2A04202D9ACF19E
:1011C00002032C44241A43EA07401EB1D4400023F2
:1011D00034607360BDE8F0874746DDE76346F1E7BA
:1011E00092BB431B01214FEA154EAFB2B3FBFEFC8D
:1011F000200C0EFB1C330CFB07F840EA0343984518
:1012000062D9EB180CF1FF3004D2984502D9ACF149
:1012100002002B44A3EB0803A4B2B3FBFEFC0EFBBD
:101220001C330CFB07F744EA0344A7424ED92C19A0
:101230000CF1FF3304D2A74202D9ACF102032C44D3
:10124000E41B43EA0040C0E7C2F1200320FA03F1A7
:10125000954090402EFA03F303434FEA154EAFB288
:10126000B1FBFEFC0EFB1C10190C0CFB07F841EA4D
:101270000041884504FA02F422D969180CF1FF30C4
:1012800004D2884502D9ACF102002944A1EB08013F
:101290009BB2B1FBFEFC0EFB1C110CFB07F743EAF3
:1012A00001439F420ED9EB180CF1FF3104D29F424B
:1012B00002D9ACF102012B44DB1B41EA004192E769
:1012C0006046E3E76146F7E76046A3E76346B7E7B2
:1012D000834206D916B9002108467BE7C6E900E03B
:1012E000F9E7B3FA83F78FB9834201D3724508D87F
:1012F000BEEB020460EB030301209C461EB90021F3
:1013000068E73846FAE7C6E9004CF8E7C7F1200C71
:10131000BB4022FA0CF41C432EFA0CF120FA0CF319
:10132000B84001434FEA14490EFA07F5B3FBF9F848
:101330001FFA84FE09FB18300B0C08FB0EFA43EA77
:1013400000439A4502FA07F240D9E31808F1FF304A
:1013500004D29A4502D9A8F102002344A3EB0A0360
:1013600089B2B3FBF9F809FB183308FB0EFE41EA1A
:1013700003418E452CD9611808F1FF3304D28E4504
:1013800002D9A8F10203214443EA0040A0FB0298DD
:10139000A1EB0E014145CE46434602D306D14D4551
:1013A00004D2B9EB020E68EB04030138002EA6D07C
:1013B000B5EB0E0261EB030101FA0CFC22FA07F314
:1013C0004CEA0303F940C6E9003198E74046C5E717
:1013D0004346D9E7034613F8012B002AFBD1181A1C
:1013E0000138704738B5104C204607F0E1FFC0B116
:1013F0002269A568136843F0400313602B680B4A09
:1014000006212046984700280BDB40216B692046C7
:101410009847002805DB00214FF4004006F00CF847
:10142000F3E7002038BD00BF509B0000010006001C
:10143000014B1B68184700BFB000002030B585B0D5
:1014400004460D4610220021684608F0DDFA02230A
:101450008DF802302A46044B01932146684606F077
:1014600033FC05B030BD00BF3114000080B5054627
:101470000E461746984606F013F8034608F006FB9A
:10148000DFF81890044649F80030424630463946A5
:10149000A84754F8090001F05DFC00BF08000000F7
:1014A0002DE9F047058B04462807904611D4022900
:1014B00005F0070540F0CD80204607F049F878B1E7
:1014C0000138218B042811D8DFE800F0C3106D85A6
:1014D000950001290CBF45F0100545F02005258336
:1014E00088F31188BFF36F8FBDE8F08701F0070A1A
:1014F000AA4500F0A6800027B9463E46A368002B07
:1015000000F0BD8041F00801218388F31188BFF30A
:101510006F8FA168002900F0BB800D68002900F0E2
:10152000B780D1F80480334652462046C047002D8C
:1015300076D02B6829461D46F0E701F007035A1FB5
:10154000012A1BD8002221F00701062B276889B247
:10155000C4E9002209D13B4603E0628B0132628379
:101560001B68002BF9D141F002012183204606F0CF
:10157000EFFF00287BD041F0200177E0042B0AD157
:1015800021F0070189B22183204606F0E1FF10B166
:1015900041F020012183218B01F0070AAA4550D098
:1015A0000027B946AAE7236921F0070141F00601A7
:1015B000062DD3F8009021832DD1B9F1000F40D032
:1015C00041F00801218388F31188BFF36F8F3A49F6
:1015D0002046C84729E021F00701236941F00401B2
:1015E00089B2042DD3F804902183E6D000273E462B
:1015F0004FF0040A82E721F00701236941F0050159
:1016000089B2052DD3F808902183D6D000273E4615
:101610004FF0050A72E700273E464FF0060A6DE7D5
:101620002B4687E7B9F1000FD1D14FF02003EFF33C
:10163000118883F31288BFF36F8F238B23F0080385
:101640002383258BEA062ED525F01003238305F08E
:1016500007056669218B002EBFF66FAF0023276850
:10166000C4E9003321F0070141F001012183218BFE
:1016700001F0070AAA454FF000097FF43FAF002FA1
:101680009BD041F00801218388F31188BFF36F8F4D
:10169000002FC7D03D68394633465246204606F0F3
:1016A00083FF2F46F4E7AB067FF51AAF25F0200342
:1016B000238305F00705FFE6D585000008B504463D
:1016C0004FF02002EFF3118382F31288BFF36F8F84
:1016D00003F000F9204601F0E7FA034806F045FD63
:1016E00000F0DAFFFCE700BF89A0000003F036B984
:1016F000F0B40C4B0C4E5F6A0C4BB34203D36FF04B
:101700008500F0BC70475D68BD4209D31C693CB1DF
:1017100095F802C00579AC4502D12346F0BC1847C4
:101720002433EAE7B8060020980300207403002061
:101730002DE9F047134CDFF85080DFF85090054654
:101740000E461746444503D36FF08500BDE8F08789
:101750006268D9F824309A4212D3A36983B1907891
:101760002979884205D13A4631462846BDE8F047F6
:1017700018475279012A03D13A46314628469847FC
:101780002434DFE77403002098030020B80600200B
:101790002DE9F0410B4CDFF8308005460E46174628
:1017A000444502D36FF0850009E063690BB9243426
:1017B000F6E73A463146284698470028F7D1BDE873
:1017C000F08100BF740300209803002010B5044688
:1017D00007F0C0F910F1780F00D050B9054A204643
:1017E00007F079F8D2F8C43023EA0003C2F8C43015
:1017F000002010BDB8060020024B00221A605A607B
:10180000704700BF7307002070B50B4B0B4CA34211
:1018100001D3002070BD196A1E7F00220439D5B2A1
:10182000AE4201D82433F2E7013211F8325085423A
:10183000F5D10120EEE700BF7403002098030020DB
:1018400073B5C4B263060D468DF8074007D0204635
:10185000FFF7DAFF78B10D4B93F8BA0058B10B4E91
:10186000204655B101F080FFF3691BB10DF107016E
:1018700008209847012002B070BD01F09DFFF36978
:10188000002BF7D00DF107010920F2E7B806002080
:1018900073B586788DF80060037942791C4C43EA71
:1018A0000223ADF80230C378304603F003038DF80D
:1018B000043007F010F8D4F8C430184205460BD0B5
:1018C000304600F007FC3046FFF780FF07F0C9FD07
:1018D00010B9962005F0CAFD684601F021FF10F10D
:1018E000780F03D010B1002002B070BD9DF8000049
:1018F00001F09EFF10F1780F01D00028F3D1D4F849
:10190000C43001202B4384F8B900C4F8C430EBE79D
:10191000B80600202DE9F047924DAB6904460E460B
:101920001746C3B9207800F01F00012876D002289E
:1019300000F0DC8000BB94F900103A68637800295D
:101940002EDA062B0CD0082B25D0ABB9537001230F
:101950001370022303E198470028E3D100200DE033
:101960006388190A0A1F012A8C4605D9072903D85A
:10197000DAB26B6A1C781CB96FF01500BDE8F0870D
:101980005D78654503D1824200F0E4800130234454
:10199000F0E71B78E3E095F8BA3013700123DEE03E
:1019A000052B11D0092BE7D163886E6A002B32D149
:1019B000FFF722FF638885F8BA30EB69002BCDD0A2
:1019C000694903209847C9E7A07801F097FE0028ED
:1019D000C4D0D1E77378042B10D0052B11D0022B83
:1019E00004D177796388BB4208BF012033781E4455
:1019F0003378002BEED10028BED0D9E796F80380CB
:101A0000F4E76388BB42F1D1B8F1000FEED1304664
:101A1000FFF73EFFEAE7FF27B846E9E795F8BA3057
:101A2000D7F800C0002BA7D06F6AA28894F804E012
:101A30003B46187800289FD05978022904D193F8A2
:101A40000480F04500F292800344F2E78CF8003005
:101A50008CF80130316081E71F4493E00B2B8BD170
:101A600000264FF0FF08C146B24606E07B78042B03
:101A70000FD0052B21D03B781F443B78002BF5D1AC
:101A8000EB6913B1514607209847002E7FF466AFEB
:101A900072E797F80280A38897F803909845EAD1F7
:101AA00063889945E7D1B8F1070F1CD805EB080307
:101AB000BA4683F8BB900126DDE7A3884345DAD117
:101AC000A3784B450AD0BE78304600F003FB304681
:101AD000FFF77CFEB0FA80F67609CCE73846FFF7D0
:101AE000D7FE0646C7E7BA460026C4E794F90020A9
:101AF0006378002A18DA002B7FF43EAF24793F6820
:101B000063060AD02046FFF77FFE00283FF434AF7B
:101B100095F8BA30002B3FF42FAF3946204601F03C
:101B20006BFE00237B7014E7012B08D0032B7FF49E
:101B300023AF6388002B7FF41FAF012103E061888E
:101B400000297FF419AFA088FFF77AFE00287FF400
:101B500005AF11E702293B607FF41BAF5B88336060
:101B6000FCE600BFB80600207207002094F90000D0
:101B700063780028BFF672AF002B3FF467AF0A2BE3
:101B80007FF4FAAE3B78002B3FF4F6AE7978042967
:101B90007FF462AFB9788A427FF45EAF072A96BFBE
:101BA0005219002392F8BB308CF80030F6E600BFE3
:101BB000054B064A9A62064ADA62064A1A63064AE0
:101BC00058629A6100207047B8060020151900007D
:101BD000F1160000911700003117000010B5084BF6
:101BE00093F8B84034B900F051F830B1FFF7E0FF96
:101BF000204610BD6FF07700FBE74FF0FF30F8E7AD
:101C0000B806002030B51F4B8BB005AA03F11005B4
:101C100018685968144603C40833AB422246F7D10A
:101C20001B7823701022002101A807F0EDFE12227C
:101C30000021154807F0E8FE102101A807F089F8F7
:101C400000281BDD0828B8BF0820093801AB0E4961
:101C50001A18002012F8013F0AAC04EB131403F029
:101C60000F0328336B44013014F8144C13F8143C60
:101C70000C7008284B7001F10201EBD102480BB047
:101C800030BD00BFBDA00000401B00202DE9F04F7B
:101C9000704C87B04FF0000B00264FF0011AB04691
:101CA0003546B14623782BB96B4B02349C42F3D1B5
:101CB000684833E06378052B1BD8DFE803F0900316
:101CC000C8901D3B402304A88DF810B0ADF8123029
:101CD0008DF814B006F026FF40B1082304A8ADF833
:101CE000123006F01FFF08B1ADF812B0BDF8123087
:101CF000E37123781C44D5E7E378002BF9D1A3786E
:101D00007BB108F101085FFA88F8F2E76B689C4242
:101D100009D02435514B9D42F8D3002007B0BDE8CF
:101D2000F08F4F4DF6E7AB68002BEAD041462046D6
:101D30009847E6E7002DF0D000222B7F9A42ECD2A4
:101D4000296AA07801EBC2010B79984201D00132D7
:101D5000F3E70127E07800F003008DF81400207904
:101D600094F805C040EA0C20ADF8120094F9020086
:101D70000028FBB228DA07F110004FF0010C0CFA32
:101D800000F010EA0A0F26D143F080008DF8100011
:101D900004A8CDE90213019206F0C4FEDDE9012199
:101DA000039BC0B99DF81020A27012F0800F18BFDD
:101DB00010330A7118BFDBB24FF0010214BF9A4012
:101DC000BA404AEA020A94E70120B84010EA0A0F32
:101DD00001D11846DAE70137102FBBD1B7E7032E40
:101DE0001DD1FFF70FFF074668B1FFF7F3FA102880
:101DF00009D13846A31C07F1100250F8041B43F820
:101E0000041B9042F9D123786FF00201E218091BFC
:101E100004EB5303D14213D50136F6B269E7002E25
:101E2000F1D1B9F1000F3FF478AFA4EB090389F8C1
:101E30000230C3F3072389F8033089F80480EBE705
:101E400002F801BC13F8010902F8020DE2E7A1460D
:101E50004FE700BFD002002073030020980300204A
:101E60007403002010B5094B00211A461C788442E7
:101E700004D15C6814B102EB811010BD013104295A
:101E800003F14003F2D10020F7E700BF84070020F0
:101E90002DE9F34150F8283C10F82C6C103304461F
:101EA00010D1036950F8202C990739D5EAB913F0FD
:101EB000040304D11A461946304606F01AFD0023E1
:101EC00044F8283C54F8283C10330BD054E90775EB
:101ED00054F8148C07F0C5FA00284CD02C48214641
:101EE00007F0ACFB02B0BDE8F08150F8241C01AB58
:101EF000304606F0FEFC10B16FF01503E0E7019AE2
:101F000054F8243C134444F8243C54F8203C9B1AD5
:101F100044F8203C54F81C3C134444F81C3CD1E7E2
:101F200050F8241C01AB304601F028FD0028E3D115
:101F3000019D54F8243C2B4444F8243C54F8203CA4
:101F40005B1B44F8203C54F81C3C2B4444F81C3CDC
:101F5000002DB4D0304601F09BFDB5FBF0F303FB40
:101F60001055002DABD154F8203C002BA7D03046A3
:101F700001F04CFDA6E744F8180CA4F1100004F0A1
:101F8000F5FD002DAED0424639463046A847A9E7B8
:101F9000980300204B1E012B73B506460D460FD843
:101FA000FFF760FF044668B9012D09D101AB01229A
:101FB0000DF10301304601F0E1FC019B002BF5D14E
:101FC00002B070BD07F04DFA04F12C0108B1012DEB
:101FD00005D1084602B0BDE87040FFF759BF03487D
:101FE00002B0BDE8704007F029BB00BF9803002095
:101FF0002DE9F74F064601911546984606F0C1FCBB
:10200000044600285CD14FF02003EFF3118A83F3DC
:102010001288BFF36F8FDFF8B0B00022002358465C
:1020200004F0C8FD70B9DFF8A490A70109EB84148F
:10203000636813F1100F14D10193584604F096FD14
:10204000019B06E00134042C0BF1400BE5D16FF04D
:102050000B038AF31188BFF36F8F184603B0BDE8F6
:10206000F08F019B2061C4E902350C9B63610D9BDD
:10207000A36130466FF00F0309F80760C4F83C8095
:10208000636001F005FD58B1304601F001FDB5FB7C
:10209000F0F303FB10551DB1E36B43F00403E3635E
:1020A00018F0020F07D007F12C010948494407F046
:1020B000C5FA0023CDE7304601F0A8FC0346C8E787
:1020C0006FF00F03C9E700BFA007002084070020BE
:1020D0009803002010B54FF02003EFF3118483F331
:1020E0001288BFF36F8FFFF7BDFE50B14368103306
:1020F00007D16FF08B03436000F12C01034807F018
:102100009DFA84F31188BFF36F8F10BD98030020F0
:1021100008B50146034806F01EFC10B1012300F883
:10212000073C08BD840800200169012381F84B3079
:102130000B6833B191F849301BB10248083107F000
:102140007DBA7047980300200169012381F84A3065
:102150000B6833B191F848301BB10248083107F0E1
:102160006DBA70479803002038B5056995F89E0050
:1021700088B195F89F307BB985F84830D5F8900044
:1021800006F034FB002204460023044805F1180140
:1021900004F066FE204638BD0020FCE798030020CE
:1021A00013B504698DF8071094F89E30A3B194F824
:1021B0009F308BB90DF10701D4F8900084F84830B6
:1021C000012206F013FB014640B10D4821220023F5
:1021D00004F1180104F044FE02B010BDD4F89000E0
:1021E000012206F057FB0028F6D0D4F89000012217
:1021F0000DF1070106F0FAFA0028E6D1ECE700BF7E
:1022000098030020F0B5D0F88C305B681B6A1F7D06
:1022100085B00546384606F0B4FB0646E0B9A86F1F
:102220004FF4806203A906F000FB0446A0B18306C8
:10223000A5F1180308BF00F1FF3485F83060019361
:10224000064B03990093224602233846FFF7D0FE3F
:10225000A86F214606F009FB05B0F0BD0123000080
:1022600070B504460E4601791548154606F065FB23
:1022700010B394F900206378002A16DB202B04D0D9
:10228000222B0ED06FF085000AE02B681A6840F808
:10229000102C9A8820F80C2C9B7900F80A3C00201E
:1022A00070BD638800F8093CF9E7212BEAD11038AA
:1022B000072328603360F2E76FF01200F0E700BFF9
:1022C000840800200D4A03460021A0F84810106839
:1022D000C3F8940090889279A3F8980083F89A2024
:1022E00083F89C1083F89B10A3F89E1083F8A0102D
:1022F000402203F14C0007F087BB00BF909D000017
:1023000010B5012382F84830136814463BB192F8A7
:102310004A3023B10A4802F1080107F08FF9D4F8D6
:1023200090309A681B699A4208D004F11801044859
:10233000BDE810400022002304F092BD10BD00BF94
:102340009803002010B504690023C4F8A8300C4B92
:10235000C4F8A400596804F1A80269B9C3E90022CD
:1023600004F10800074907F04CF904F11800064988
:1023700007F075F9002010BD0A605A60F0E700BF51
:1023800084080020AD8900000522000073B51446C2
:1023900002F14C060A1E05461FDDD4F88C003146BA
:1023A00006F024FA012384F8493023683BB194F8FD
:1023B0004B3023B10E4804F1080107F03FF9D4F87F
:1023C0008C104B684A699A1ACB699B1A3F2B04D828
:1023D000012384F8A03002B070BD064B0093019435
:1023E0000123402231462846FFF702FEF3E700BFF3
:1023F000980300208D23000038B50D4601461E4885
:1024000006F08FFA044680B30246691E52F8A439DA
:102410005B68052929D8DFE801F020280320252959
:1024200014F8061C31B91B6A187BFFF7AFFF0123B4
:1024300004F8063C14F85C3CBBB9012304F85C3C8E
:1024400054F8A43C8BB114F85A3C73B1A4F19C012C
:102450000A48BDE8384007F0F1B8BDE838401046FA
:10246000FFF730BF012304F8053C38BD14F8053CE4
:10247000002BFAD00023F6E7840800209803002000
:1024800037B5094D0949002400944FF0FF334FF44C
:102490008062284604F0ACFC0549284606F0E7FFB8
:1024A000204603B030BD00BF98030020801B0020F1
:1024B00003A10000014805F05FBA00BFF49D0000D1
:1024C00038B5044618B90F4B0F485B6898476168E8
:1024D000B1F5683F10D0B1F5680F0DD00B4DA94292
:1024E0000AD011F46861206807D00146084806F058
:1024F00092FF00232360656038BD142207F084FA40
:10250000F9E700BFE80100200CA100002C5F5CA9E6
:102510008C0D002008B520B34368B3F5683F10D197
:1025200001220368BFF35B8F53E8001F002903D12A
:1025300043E800200028F7D1BFF35B8F0DD10020C6
:1025400008BD094A93420AD000684FF0FF324FF0AD
:10255000FF3304F021FA0028F1D00448F0E70448E2
:10256000EEE76FF4E040EBE72C5F5CA9E98FFFFF3B
:10257000EA8FFFFF08B5D8B14368B3F5683F10D1C3
:1025800000220368BFF35B8F53E8001F012903D1CA
:1025900043E800200028F7D1BFF35B8F0BD1002068
:1025A00008BD074A934208D0006804F06FFAF6E7C6
:1025B0006FF4E040F4E70348F2E70348F0E700BFB8
:1025C0002C5F5CA9E98FFFFFEA8FFFFF10B504467F
:1025D00018B91D4B1D485B6898476368B3F5683FA1
:1025E0002FD0B3F5680F2CD0194A934219D1236824
:1025F00003BB18484FF0FF324FF0FF33214604F081
:10260000D5F808B923681BB90F4B13485B68984786
:1026100020681422002107F0F7F94FF46863636023
:1026200008E0B3F5683F0DD83A2B03D040F6BA6204
:102630009342DED1206806F033FF636843F03A032B
:10264000636010BD054AF3E7E80100200CA100001B
:102650002C5F5CA98C0D002032A100003A00003AEA
:1026600008B5064906484023142206F0C6FEBDE818
:1026700008400449044805F0F1B900BF8C08002067
:102680008C0D0020FC9D0000109E000001491022CE
:102690000A60704710ED00E072B6404080F3118888
:1026A000BFF36F8FBFF34F8F30BF62B6BFF36F8F33
:1026B000704700BF72B6494081F31188BFF34F8F56
:1026C00020BF80F3118862B6704700BF40B2002877
:1026D00007DB044A4109012300F01F00834042F850
:1026E0002130704700E100E040B200280CDB4309D4
:1026F000064900F01F0020330122824041F82320C8
:10270000BFF34F8FBFF36F8F704700BF00E100E052
:10271000054B420900F01F0053F82220012303FA61
:1027200000F01040704700BF00E100E040B2002818
:10273000A8BF00F1604001F10101B8BF064B4FEAAC
:102740004111ACBF00F5614000F00F00C9B2B4BF49
:10275000195480F80013704714ED00E030BFFFF704
:10276000FDBF00BF0B4A08B50B4B22F07F029A60F9
:10277000BFF34F8FBFF36F8FD3F8882022F470021E
:10278000C3F8882003F040FF04F002FF00F056FA7F
:1027900003F08CFF0010000000ED00E0094A0A4938
:1027A000936809689967094958674B6843F08053F3
:1027B0004B60002383F31188BFF36F8F9368986F8A
:1027C000704700BF30190020B09F000000ED00E00E
:1027D00015498A684FF030001044EFF3098C80E807
:1027E000F01F202080F31288BFF36F8F0F4F4FF040
:1027F00000664A698A603E604FF0700414192068D0
:102800000B4C2060506F0023536780F3118804B590
:10281000104600F0C1FABDE8044002F1300090E833
:10282000F01F8CF3098870473019002004ED00E098
:10283000A80D00201EF0040F0CBFEFF30880EFF38B
:102840000980816911F8021C0229FFD001B506F048
:1028500043F901BD42F8203C009B42F81C3C0A4968
:10286000019B42F8183C029B42F8143C21F0010104
:102870004FF0807342F8043C42F8081C0023203AD1
:1028800002654367704700BF6D140000094A0346A4
:10289000906870B113F1160F006E05D0A0F14002E0
:1028A0009A4205D8834203D2814228BF0020704754
:1028B000002070473019002008B514460A4A0B4B17
:1028C0009060026F1A600D4600F066FA204685F3AC
:1028D0000988002163B681F31188BFF36F8F00224E
:1028E0000023FEF7C3FD00BF30190020A80D002013
:1028F00001B5EFF30580A0F110004FEAC0000449D4
:10290000014409C99847BDE8014002490847000051
:102910008C9B000075290000114B124A2DE9F041F3
:10292000D518DFF84480013DB5FBF3F55D430F4B4F
:1029300008EB0304013CB4FBF3F403FB04540E1B4B
:1029400007460B49304607F051F8701942460021FE
:10295000083E07F059F83E6704F10800BDE8F08131
:10296000010000000000000004000000040000005E
:102970008C9D0000044B99685869884203D0034934
:102980004FF080520A6070473019002004ED00E0DB
:1029900070B5264B15469A6A12F0100F9A6A14BF4A
:1029A0001124102412F0080F9A6A18BF12249207FB
:1029B00006460AD5586B9A6A140634D519B19A6A34
:1029C00022F080029A62132401E06FF01500174B89
:1029D0009A6A12F0010F9A6A18BF142412F0200F9D
:1029E0009A6A18BF1524D20602D49B6A9B070AD59F
:1029F0000E4B5B68190506D53146FFF747FF10B14E
:102A000080F309880224094B9A6A920642BF5A6AE7
:102A100022F400525A629A6A42F0FF029A6200233C
:102A20002B70204670BD6FF01500CCE700ED00E084
:102A3000134B9A6A12F0007F9A6A14BF1E201D2061
:102A400012F0807F9A6A18BF1F2012F4002F9A6A32
:102A500018BF212012F4802F9A6A18BF222012F486
:102A6000003F9A6A18BF232012F4803F9A6A6FEAE7
:102A700002426FEA12429A6218BF2420704700BFD8
:102A800000ED00E010B5194B0246986A9C6A10F4FC
:102A9000805F14BF1720162014F4006F9C6A18BFC3
:102AA0001820A40509D5986B986A000404D51AB1BA
:102AB0009A6A22F400429A6219200C4B9A6A12F424
:102AC000806F9A6A18BF1A20D2050CD49B6A13F43F
:102AD000005F18BF1C20054A936A43F47F4393624A
:102AE00000230B7010BD1B20F5E700BF00ED00E0D8
:102AF000F0B5484B5B688BB00446C3F30803002570
:102B000085F31188BFF36F8F02F07F40B0F17F4FE4
:102B100011D102F00C0008280DD010074CBF0C4654
:102B200001250022033B8DF80720032B05D8DFE8A1
:102B300003F0246367602C46F3E700239DF8072029
:102B4000CAB902AE04F1200720686168324603C2A8
:102B50000834BC421646F7D1099A002D54D0C2F36E
:102B6000080121B96FEA52226FEA4222099202A9B2
:102B7000184605F0AFFF0BB0F0BD264BDA6A91079F
:102B8000DBD4DA6A002AD8DBDA6A5200D5D55A6972
:102B9000A16942F480725A61BFF34F8FBFF36F8F08
:102BA0005A6931F8021C22F480725A61BFF34F8FC8
:102BB000BFF36F8F4DF6027291420AD09A6AD2B279
:102BC0004AB10DF1070201212046FFF7E1FE03465D
:102BD000B4E72368B2E79A6A12F47F4F05D00DF18B
:102BE00007010120FFF74EFFF1E79B6AB3F5803F35
:102BF000A3D3FFF71DFFEAE70DF107020021E3E78A
:102C00000DF107010020EDE722F4FF7222F001022E
:102C1000ACE700BF00ED00E0024A536943F0100347
:102C20005361704700ED00E0EFF30880EFF3098196
:102C300001B57246FFF75CFF01BD00BF04480023E9
:102C40002021C2180133302B82F80013F9D17047CC
:102C500000E100E0002080F31488BFF36F8FFEF7DF
:102C600045FD00200D490860BFF34F8F0C4880F3ED
:102C7000088800F03DF8202080F3118809484FF4BF
:102C80000461401880F30988EFF31480022108439F
:102C900080F31488BFF36F8FFFF764FD94ED00E0BD
:102CA000C031002000240020BFF34F8F0549064BA0
:102CB000CA6802F4E0621343CB60BFF34F8F00BFDA
:102CC000FDE700BF00ED00E00400FA050749D1F878
:102CD00090200023C2F307221846934200DB70477E
:102CE000C1F89830C1F8A0000133F6E700ED00E02C
:102CF00008B572B6002383F31388FFF7E7FF144B80
:102D00004FF0FF32C3F88020C3F88420C3F8882036
:102D1000C3F88C20C3F89020C3F89420C3F89820FF
:102D2000C3F89C20C3F88021C3F88421C3F888210C
:102D3000C3F88C21C3F89021C3F89421C3F89821DB
:102D4000C3F89C2162B6BFF34F8FBFF36F8F08BDEE
:102D500000E100E0084B9B6883420BD1EFF3058351
:102D600043B1064B5A6842F080525A605A6A22F4C4
:102D700000425A6204F09ABB3019002000ED00E0D6
:102D8000024B034A0348012100F070B80000042000
:102D900000000020209E0000026E054B403A1A60A1
:102DA000044A4021C3E901121846012100F068B825
:102DB000AC0D002000000B15F0B5204E00258D4213
:102DC00039DA446874B353B104F1FF3C14EA0C0FD0
:102DD0002FD11F2C2DD907681CEA070F29D1202CD1
:102DE0000768D0F808C05FFA82FE1ED9B4F1004F20
:102DF0001DD8013CB4FA84F4C4F11F046400BEF190
:102E0000070F4CEA040C14D827F01F04144344F0B5
:102E10001004C6F89820C6F89C404CF00104C6F88F
:102E2000A040013201350C30C9E70824E7E73E2411
:102E3000E5E76FF015021046F0BD00BF00ED00E0C1
:102E4000044B0522C3F89420BFF34F8FBFF36F8F5D
:102E5000704700BF00ED00E0BFF35F8F024B002220
:102E6000C3F89420704700BF00ED00E010B5034C9C
:102E700001232278FFF7A0FF207010BD521B002015
:102E800008B5094A00231278FFF796FF10F1160FD4
:102E900002D0064A072800DD08BDC2F89800C2F833
:102EA000A0300130F6E700BF521B002000ED00E02B
:102EB00014490868082810B521D8FFF7CDFF124C37
:102EC00049680022904201F10C0105D10F4B1870A6
:102ED000FFF7B6FF002010BDC4F8982051F80C3C55
:102EE00023F01F03134343F01003C4F89C3051F840
:102EF000043C43F00103C4F8A0300132E2E74FF094
:102F0000FF30E8E72C9E000000ED00E0521B00209F
:102F100008B5044805F029F9404080F311884FF0C6
:102F2000020002DF63A1000008B50649064821F04F
:102F30000701C1F1005202F5802205F0B1FA00202C
:102F400008BD00BFD3400020403600200E4A0123B8
:102F5000C2F840354FF080424FF08051C2F87835CA
:102F6000D1F83001082808D1D1F83411052904D846
:102F70000648415C09B1C2F838364FF0804301225F
:102F8000C3F880250020704700E0014090A10000B8
:102F900020B1034B800143F001031847704700BF85
:102FA000A09D00004FF08043D3F84036DB072ED5BC
:102FB0004FF01023D3F8043303F00703072B26D177
:102FC000144A0123C2F80435D2F80034002BFBD098
:102FD0004FF01021D1F8043323F0070343F004032A
:102FE000C1F804330023C2F804350A4AD2F8003489
:102FF000002BFBD0BFF34F8F0749084BCA6802F480
:10300000E0621343CB60BFF34F8F00BFFDE70020AA
:10301000704700BF00E0014000ED00E00400FA0549
:10302000020600F07F0312D5082B05D1010700F03E
:103030000F0306D50E48704710F0780F12D100F03C
:103040000F034C2000EB43100A4B18447047082B29
:1030500005D1020700F00F0306D50748704710F0AE
:10306000780FF6D000207047044800EB43107047FB
:10307000040F0020B80D002024100020240F002091
:103080000149024806F0DABAE00D002038040020B9
:103090000146014806F079BAC00200200248002229
:1030A000002303F02FBD00BFC002002013B512485B
:1030B00002F0A0FD114B98421AD1114802F006FA15
:1030C0000024104802F048FA0F49104800944FF0CD
:1030D000FF334FF4806203F08BFE0D490B4806F07E
:1030E000C6F90C480C4906F08CFA204602B010BD17
:1030F0006FF00400FAE700BF013300000000AD0BE1
:10310000A8A100004C9E0000C01F00203804002031
:103110009AA10000E00D00201D34000010B50E49FA
:10312000BFF35B8F002351E8002F012A03D141E850
:1031300000300028F7D1BFF35B8F0CD151F8044C5D
:103140001439204605F0E4FA783004D12046BDE871
:10315000104005F0B8BA10BDD80D002038B50024D5
:1031600064F07F00C0B2FFF75BFF013405F0C3FCE1
:10317000082CF5D10E4D0024E0B2FFF751FF036992
:1031800003B90561013405F0B6FC082C05F14005D2
:10319000F2D1084805F0AFFC074BD3F87C2212B9F6
:1031A000064AC3F87C22064805F0A5FC002038BD7D
:1031B00048140020040F0020B80D00204810002003
:1031C0002410002010B5054CFFF768FF20B14168BE
:1031D000204606F020F9F7E710BD00BF540200209A
:1031E00007B500230E48002201A903F0DFFA90B1D1
:1031F000FFF7E8FF0A480022002301A903F0D6FAEE
:1032000038B90198042340600374FFF741FFFFF7CA
:1032100037FF002001E00198406003B05DF804FB37
:1032200054020020022810B511D8094B1C5CFFF78E
:10323000D7FF60B1002202740472FFF729FF054B2B
:1032400093F824301BB1BDE81040FFF719BF10BD43
:10325000A5A10000B80D0020F8B5877806463846CD
:10326000FFF7DEFE3B06F578044612D5002D43D16C
:10327000FFF7B6FF034600283ED00122A57702746F
:10328000032202739C60FFF703FFBDE8F840FFF7DD
:10329000F7BE4DB1012D2FD1FFF7A2FF034658B362
:1032A000657705740573EDE7FFF79AFF20B3B278F1
:1032B000124B12F0800F02F0080111D041B1D3F887
:1032C000A836E36001230374022303738460DAE702
:1032D00002F00F02142101FB0233D3F80836F0E7A5
:1032E00011B1D3F8A837ECE702F00F02142101FB6B
:1032F0000233D3F80837E4E7F8BD00BF007002409E
:10330000F0B5064689B01422002103A806F07CFB24
:103310003378013B052B21D8DFE803F07A0314143E
:103320006A1603238DF814300024FFF759FF034673
:10333000A0B1047400F10802DDE9050182E8030090
:1033400018461DE00423EDE7B7783846FFF768FE1E
:10335000837A044623B1013B022B43D909B0F0BD67
:103360003B06F57813D5002DF8D1FFF739FF03465A
:103370000028F3D00122A5770274032202739C6017
:10338000FFF786FE09B0BDE8F040FFF779BE55B102
:10339000012DE3D1FFF724FF03460028DED0657737
:1033A00005740573EBE7FFF71BFF07460028D5D030
:1033B0000123037402230373846004F10C01B078C9
:1033C00005F0C3FF134AE168B2F88C328B4206D98C
:1033D0005B1AA2F88C3202F061FE3846D0E7A2F800
:1033E0008C52FAE7304609B0BDE8F040FFF734BF31
:1033F00001A802F031FE9DF80530052B04D19DF89F
:10340000043013F0600FA9D0034B059301248CE71F
:1034100002248AE7B80D0020240F00202DE9F04394
:10342000A64CDFF89C9285B08046FFF737FE074632
:1034300010B905B0BDE8F08394F825303A7C3BB96B
:10344000002A00F0868079689D4805F0E4FFECE7EB
:10345000042A42D8DFE812F07D00050000011601C1
:1034600040013B7BBD68032B37D8DFE803F0023D0A
:103470005A5F6E69934B002232607260D3F88014F9
:103480003170D3F884147170D3F88814D3F88C0495
:1034900041EA00217180D3F89014D3F8940441EAF2
:1034A0000021B180D3F89814D3F89C3441EA032367
:1034B000F3800823EB6030687168834B03C31146C7
:1034C0002B68687A984796F90030002B08DBF38860
:1034D00033B1A4F88C3202F0E1FD79684846B4E7D4
:1034E0000023A4F88C32F8E76B7F002BF5D02B7FFC
:1034F000002BF2D000266E774FF0FF3273482E7704
:103500004FF0FF3305F00AFB6B6901936B68CDE95F
:10351000023601A9687A02F0AFFB6C4805F000FBA7
:10352000DBE72B680121687A9847D6E7AB7A6BB95D
:10353000EB7F5BB965484FF0FF324FF0FF3305F08A
:10354000EDFA02F0DBFD614805F0EAFA2B68022192
:10355000E9E73A7A042AC0D8DFE802F05903236782
:10356000730002F011FB05460028B6D102F042FAC2
:10357000BFF35B8F5649012351E8002F002A03D186
:1035800041E800300028F7D1BFF35B8FA5D141F8A7
:10359000085C41F8105CE0696361143905F03BF8A0
:1035A0009BE7002565F07F00C0B2FFF739FD037A85
:1035B00013B1407A02F06AFF0135082DF2D194F878
:1035C00054311BB194F8550102F060FF0025E8B2B8
:1035D000FFF726FD037A13B1407A02F057FF013559
:1035E000082DF4D194F874321BB194F8750202F0EE
:1035F0004DFF002002F0AAFA012384F82530236849
:10360000002B3FF46AAF00210220984765E70025B0
:1036100084F8255002F0DEFEFFF780FD2368002BC2
:103620003FF45BAF29460420EFE7002B3FF455AF92
:1036300002F0B4FA2368002B3FF44FAF00210520BD
:10364000E3E72268002A3FF448AF002B3FF445AF80
:1036500000210620904740E708F110054FF0FF33A6
:103660004FF0FF32284605F059FAFFF777FD28465C
:1036700005F056FA58F8283C002B3FF42EAF0021F5
:103680000120C2E794F874327BB1012584F8895295
:1036900084F88852FFF7A4FD38B10E4A057405730B
:1036A0008260FFF7F5FCFFF7EBFC58F8283C002B95
:1036B0003FF413AF00210A20A7E700BFB80D002098
:1036C0005402002000700240BC0D0020F00D0020CC
:1036D000D80D00202410002005F0AEFD02F07AFE87
:1036E00002F07EF9FFF76EFDFFF738FD05F09DFD56
:1036F000014802F07FFAF0E601330000074B93F82F
:1037000024203AB193F82530002B14BF00206FF02D
:10371000120070476FF01200704700BFB80D002014
:1037200038B5104B93F824300446C3B105782846C9
:10373000FFF776FC10B96FF0150038BD457223799C
:103740008372638843602078618810F0080F02D18B
:103750004B1E0B42EFD105F0F3FD0020EDE76FF0BB
:103760001200EAE7B80D002038B5124B93F8242078
:103770000546CAB193F82530B3B1FFF751FC0446B2
:10378000A8B1837A012B12D007D9023B012B07D9AC
:103790006369A3610020E06038BD02F0B7FCF7E781
:1037A000284602F02BFCF3E76FF01200F4E76FF00D
:1037B0001500F1E7B80D002038B50E4B93F8242022
:1037C000054682B193F825306BB1FFF729FC68B14B
:1037D00015F008040AD1284602F032FC284602F00F
:1037E000A9FE204638BD6FF01200FBE76FF0150010
:1037F000F8E700BFB80D002038B50C4B93F8242033
:1038000005460C4662B193F825304BB1FFF708FC32
:1038100048B144B1284602F0F9FB2070002038BDC1
:103820006FF01200FBE76FF01500F8E7B80D00200D
:1038300070B5134E96F824300446C3B1FFF7F0FB81
:103840000546B8B1230705D4204602F0F9FB20460F
:1038500002F070FE2B7A83B901232B7296F8253083
:103860000BB9002070BD204602F010FEF9E76FF0A2
:103870001200F7E76FF01500F4E76FF07700F1E75B
:10388000B80D00202DE9F043DFF8E4801E4698F8DB
:10389000243085B0074689461546002B61D098F83C
:1038A0002530002B5DD003065ED5FFF7B9FB04463B
:1038B000002859D0037A002B56D04FF0FF334FF039
:1038C000FF3208F1380005F029F9A37F4BB108F168
:1038D000380005F025F96FF00A04204605B0BDE870
:1038E000F083A37AC5B13BB30123A3774FF000085F
:1038F00001A93846CDE90195CDF80C8002F0BCF95C
:103900001C4B984229D084F81E801EBB6FF0040423
:10391000194805F005F9E0E7E27F02B1E577002BF1
:10392000E2D102F0FBFBB842DED002F0E7FB124826
:1039300005F0F6F80024D0E7B8F80A30AB42F0D929
:103940006268B5FBF2F302FB1353002BE9D10123AC
:10395000E377E6E7C6F80080D8E706B135600024D3
:10396000D6E76FF01204B8E76FF01504B5E700BFB3
:10397000B80D00200000AD0BF00D00202DE9F04146
:103980001D46204B174693F824200E46002A33D0BC
:1039900093F8253083B3030631D401B97FBBFFF719
:1039A0003FFB044658B3037A4BB34FF0FF3316483E
:1039B0004FF0FF3205F0B2F8E3689F42B84628BFE7
:1039C000984646B93FB905B12B600F4805F0A8F8F5
:1039D0000020BDE8F081A1694246304606F006F8B5
:1039E000A3694344A361E368A3EB0803E360002DEC
:1039F000EBD0C5F80080E8E76FF01200E9E76FF060
:103A00001500E6E7B80D0020F00D002070B51E4D42
:103A100095F82420034682B395F825206AB31B0647
:103A20002ED4FFF7FDFA044650B3037A43B34FF0A8
:103A3000FF334FF0FF3205F1380005F06FF8E3680F
:103A4000B3B9012663692677A361637F83B1FFF76A
:103A5000C7FB30B905F1380005F062F86FF00B00D4
:103A600070BD067484600673FFF712FBFFF708FB56
:103A7000064805F055F80020F2E76FF01200EFE776
:103A80006FF01500ECE700BFB80D0020F00D00202E
:103A900008B5074B93F8243023B1FFF7C1FA20B1E2
:103AA000406808BD6FF01200FBE76FF01500F8E703
:103AB000B80D0020084B70B5C31A0D4607499B107E
:103AC000044659430648402205F079F82B46014642
:103AD0002046BDE8704018475C160020B76DDBB685
:103AE000289B000073B50C4C0C4A4023041B009328
:103AF0000D460B460A49A41061430646094805F0E5
:103B00008BF8011E05DA30462B4602B0BDE8704046
:103B1000184702B070BD00BF5C160020858C000005
:103B2000B76DDBB6289B0000002270B5012104466A
:103B30001046FEF7FBFD0F4801F0A0F80E4B98422F
:103B400015D101F0ABF826690C49304604F050FD60
:103B500000280BDB012535642469084904F11C00A9
:103B600004F046FD002801DBE564002070BD6FF025
:103B70000400FBE7B53B00000000AD0B509E0000C9
:103B800070B501460C2309484B43C418D4E90E56BE
:103B9000403300221844A26304F0FEFF2DB13246E8
:103BA0002B460348BDE87040184770BD5C160020E6
:103BB000289B000010B1012804D07047034B1B6CF8
:103BC0005B0701D1FFF7DCBF704700BF5C16002028
:103BD00008B54FF02003EFF3118183F31288BFF390
:103BE0006F8F124A136843F002001060DA0708D49E
:103BF00081F31188BFF36F8F0120BDE8084005F005
:103C000072BA4FF08043D3F80C24D3F80C34DB079E
:103C1000EED5074804F0C0FF81F31188BFF36F8F22
:103C20000020BDE80840FFF7ABBF00BFAC16002086
:103C30009C1600201FB500220123CDE90223094A6A
:103C4000CDF800D06B46CDF804D005F014F800286C
:103C500005DB4FF480420023684602F0ABFF05B05D
:103C60005DF804FBA38C000010B54FF02003EFF3C8
:103C7000118483F31288BFF36F8F074A136823F010
:103C80000201DB07116002D4012005F068FA84F319
:103C90001188BFF36F8F10BDAC1600202DE9F041E5
:103CA0003849BFF35B8F0746012251E8003F41E8E6
:103CB00000200028F9D1BFF35B8F33B93249334874
:103CC0004B60CB608A6004F0A6FC7B1E012B2BD8D6
:103CD000012F07D14FF08043D3F81C3403F00303C6
:103CE000012B21D005F0BDFB0546F8B9284B1B7808
:103CF000E3B14FF080430222C3F808230646DFF801
:103D000094804FF08044D4F81824D4F81834D203A7
:103D100016D503F00303012B01D0012F10D15DB3A1
:103D200086F31188BFF36F8FBDE8F0814FF0200359
:103D3000EFF3118683F31288BFF36F8F0125DEE75F
:103D4000ADB13046FEF7B6FCD4F81835002BDAD109
:103D5000D4F80421002AD6D0C4F80431D4F80431B0
:103D60000123C4F81835C8F88031A360CBE70021DF
:103D7000212003F061FBE7E74FF080430222C3F804
:103D80000423D1E75816002048160020781600209A
:103D90007C1B002000E100E030B54068057B01F0AD
:103DA0001F04B2F5001F85B044EA451405D1204632
:103DB00001F052FA002005B030BD0025B2F5800FA9
:103DC000CDE9025514D1B3F1007F0CBF04230523C4
:103DD0008DF808300023194602AA204601F058F851
:103DE000234B98423DD10121204601F0E7F9E1E75C
:103DF000B3F1C06F27D0B3F1007F14BF01230223BA
:103E00008DF80830836823FA01F111F00101E1D146
:103E1000B2F1A07FDED104F01F03620903F5E07365
:103E200013D0012A20D1134A52F82330DB07D1D412
:103E30000DF107052946204601F06AF90E4B98421C
:103E400006D00395C6E70323DAE74FF0A042EBE77D
:103E5000284601F0ADF9064B9842F2D06FF00B0006
:103E6000A9E76FF01500A6E751F82330FFDE00BF89
:103E70000000AD0B000300500400AD0B10B501F0C5
:103E800087F9044668B901F05BF9084B98420AD1FA
:103E90000748214601F036F9224605210620FEF7A3
:103EA00045FC002010BD6FF00400FBE70000AD0BE7
:103EB000B53E0000420970B5034602D0012A17D072
:103EC00070BD0D4E326951680029F9D003F01F030F
:103ED00001250C689D400029F2D08A682A4002D052
:103EE0004B68304698472CB1236821461C46F2E7C0
:103EF000024EE7E72346F8E7509B00003C9B00009A
:103F00002DE9FF4147683B7B01F01F0545EA43155A
:103F10000E4628460DF10701144601F0F9F814F495
:103F2000403F80460DD1284601F0BCF93D4B9845F5
:103F300003D19DF8070001F035F9002004B0BDE879
:103F4000F0810023194602AA2846CDE9023300F089
:103F50009FFF344B984214D1804503D19DF8070050
:103F600001F020F9A3034ED540F206332340B3F508
:103F7000837F1AD00DD8062B18D005D8B3B1022BE9
:103F800033D06FF01500D9E7B3F5807FF9D1012365
:103F90000CE040F20222934229D0B3F5407F28D0B2
:103FA000B3F5007FEDD1022300E007238DF8083040
:103FB00084F48033C3F30043E0068DF8093054BF26
:103FC000C4F34013032321038DF80A3013D57A6814
:103FD0000123B340C2F80835002202A9284601F0A7
:103FE00017F8104B9842A8D0CBE70423DEE705234F
:103FF000DCE70323DAE7620341BF01237A68B340B9
:10400000C2F80C35E8E7E3064FF0000354BFC4F3F1
:10401000401403241A4602A928468DF8084000F0EF
:1040200037FFDEE70000AD0B036803F01F025B09FA
:10403000026004D0012B034818BF002070474FF0E6
:10404000A0407047000300502DE9F04FDFF8588181
:1040500085B01546814600EB81010127494503D112
:10406000002005B0BDE8F08FD9F8003003F07F04E0
:10407000C3F343267F2C4FEA134308BF4FF0FF34AE
:10408000192B00F28D80DFE803F00D141B1E212890
:104090001E8B8B8B8B3A688B8B8B8B8B8B8B8B8B51
:1040A0006B828588C5F80C45601C63D109F1040951
:1040B000D4E7C5F81445621CF8D04FF0000A64E05C
:1040C000C5F80845F0E7C5F81045F4E7631CC5F8E6
:1040D0000845EBD04FF0000A05E0601CC5F80C4520
:1040E000E4D04FF0010A03A80394FFF79DFF039B60
:1040F00007FA03F3C0F80C354FF0010B09E0C5F8DF
:104100000845002ED7D1631CD0D04FF0000AD3460B
:104110000626D9F80030019303F40052002A03A8C0
:104120001CBF4FF0010A4FF0000B0394FFF77CFF18
:10413000039A019B00EB8200C3F3C114D0F800275F
:10414000330243EA840343EA0B0302EA08021343FF
:1041500043EA4A03C0F80037A8E7C5F80C45D0E7A2
:10416000C5F86045621CD9F800309FD0C3F3803396
:10417000002BB6D003A80394FFF756FF039B07FA62
:1041800003F3C0F808354FF0010AD346C1E7C5F87C
:104190006445E7E7C5F86845E4E7C5F86C45E1E73D
:1041A0006FF085005DE700BFF0F8FCFFF0B54B79DC
:1041B000012B26D0032B21D110258B79032B1DD168
:1041C000CE790EB1012E19D10A7912B1022A15D178
:1041D0000E220B684468B3F5164F276867D02DD8B8
:1041E000B3F5165F66D016D8B3F5966F64D00AD8CB
:1041F000B3F5967F63D0B3F5167F63D06FF085007B
:1042000054E00025D9E7B3F5166F5ED0B3F5965F9D
:10421000F4D1384B3CE0B3F5E14F59D007D8B3F5B2
:10422000615F57D0B3F5964FE8D1334B30E047F696
:104230001224A342E2D14FF4000329E0B3F5613F19
:104240004AD013D8B3F5963F49D009D84DF6C024CB
:10425000A34246D0B3F5614FD0D14FF46B0317E0C2
:10426000B3F5E13FCAD14FF0EB7311E0B3F5612F25
:104270003AD008D8214CA34239D0B3F5E12FBDD1B3
:104280004FF0E86304E01E4CA342B7D14FF08053D7
:104290000469C7F82435436835431B682A43C3F8CB
:1042A0006C2503C9231D83E803000020F0BD4FF4F3
:1042B0001D03EDE7134BEBE74FF49E23E8E74FF4C4
:1042C000A033E5E74FF41C33E2E74FF41D23DFE7AB
:1042D0000D4BDDE70D4BDBE74FF06C73D8E70C4B74
:1042E000D6E74FF46503D3E74FF07063D0E74FF0A4
:1042F0008063CDE700B0130000A04E0090D0030013
:1043000040420F000050270000C0750000F03A0046
:1043100000903A012DE9F743804600220121022056
:10432000FEF704FA0220FEF7D1F9D8F80470D8F8A5
:1043300010603C680021C4F80015C6F80080D7F86A
:104340000C9001AA484604F018FD051E4CDB019BA9
:10435000D9F8002019791868FFF776FE051E43DBAF
:10436000311D4046FFF722FF054600283CD17B68FF
:10437000990712D506F11C0001F048F91E4B98422E
:1043800036D1307F04F10C0204F5907104F0A1FEE7
:10439000337F0120984000F009FC0823C4F8003561
:1043A0003B7A53B9C4F81031D4F81031B369C4F86A
:1043B00034350123C4F8383523607B689A075CBF25
:1043C0004FF48073C4F804337B68DB0644BF4FF4BA
:1043D0008003C4F804337369C4F844350023C4F877
:1043E00048350123A360E360284603B0BDE8F083AD
:1043F0006FF00405F8E700BF0000AD0BF8B5044608
:1044000007690D4605F02DF8B0B9214B1B789BB11B
:104410006426606804F093FD00BB012004F057FEA1
:10442000013EF6D10021212003F006F8F0E781F3E8
:104430001188BFF36F8FF5E74FF02003EFF3118181
:1044400083F31288BFF36F8F60680E4604F077FD28
:1044500090B981F31188BFF36F8FEDE74FF0200320
:10446000EFF3118183F31288BFF36F8F60680E46FC
:1044700004F065FD0028DAD07B691D70796901229E
:10448000204604F09CFC86F31188BFF36F8FF8BDC3
:104490007C1B002070B5012383400E4ABFF35B8F65
:1044A000DC4352E8001F01EA040542E80056002EF2
:1044B000F7D1BFF35B8F4FF4803282400648C0F8DB
:1044C0000823BFF35F8FBFF36F8F0B4214BF012030
:1044D000002070BDCC1600200010014070B40E49C1
:1044E000D1E90034D01AC31844F1000422F07F4609
:1044F000C1E90034A6F50013B3F5400F09D2074B0C
:104500001B681A0A1B069C19054B42F10005C3E9FA
:10451000004570BC03F012B9E8040020D01600205A
:10452000F004002011B3BFF35B8F0123104A8340D6
:1045300052E800CF4CEA030C42E800C10029F7D151
:10454000BFF35B8F0B4A4FF480338340C2F80433D0
:10455000094BBFF35B8F1B68BFF35B8FC340DB0767
:1045600042BF064B4FF40032C3F80021704700BF32
:10457000CC16002000100140C816002000E100E029
:104580000D4B1868010A0006BFF35F8F0B4BD3F881
:104590000435181841F10001B3F5801F0AD2084B09
:1045A000D3E90023904271EB030303D210F1807032
:1045B00041F10001704700BFD016002000100140FB
:1045C000F00400202DE9F04F85B016461F469DF8F7
:1045D00040A00446FFF75EFF0190FFF7D1FFB04215
:1045E00071EB070354D23E4B301A67EB010198423E
:1045F00071F100014FD23B4B03EB0413D3E90223CB
:104600009F4208BF96425ED037494FF4803804F18C
:10461000500508FA04F8AD00C1F848832046ADB251
:1046200004F039FD26F07F4B05F1804504F5A873B1
:1046300005F58835DC464FF003090293029A2CF009
:104640007F4341F82230C1F84483D1F80435274A2A
:104650006FF00200C01A604420F07F40904232D9CF
:10466000286868B1D1F804350393A3EB0B0020F060
:104670007F40B0F5000F26D9204604F00CFD039BC7
:10468000BAF1000F07D109EB030C09F10109D5E7D5
:10469000BAF1000F09D06FF0150520460199FFF718
:1046A00041FF284605B0BDE8F08F0123104ABFF353
:1046B0005B8FA34052E8000F184342E80001002935
:1046C000F8D1BFF35B8F07490E98230101EB041269
:1046D000C8500F9B5360C2E902670025DDE700BFA9
:1046E00001008000D804002000100140FDFF7F0081
:1046F000C81600207FB51C4C1C4BC4F80833C4F806
:1047000048331B4B00254FF0FF304FF0FF31C4F80A
:104710000855C3E902014FF48033C4F80433154B44
:1047200002264FF400320121C4F804631120C3F8BB
:1047300080212A46FDF7FAFF1120FDF7C7FF0E4A38
:104740000123A360236013600C4B0D4A0093CDE955
:10475000015500232846FFF735FF3046FFF79EFA44
:10476000284604B070BD00BF0010014003000F00D8
:10477000D804002000E100E0CC160020DD44000059
:10478000FFFF7F002DE9F7432F4CD4F8043399073E
:104790000BD5D4F8043143B12C4A0023C4F80431BA
:1047A000D4F80431136801331360D4F80433DA0306
:1047B0002AD5BFF35B8F264B53E8002F22F001016F
:1047C00043E800100028F7D1BFF35B8FD30702D472
:1047D000D4F84031C3B10025C4F84051D4F8403179
:1047E000FFF7CEFE4FF02003EFF3118283F3128820
:1047F000BFF36F8F174BD3E90267B042B94106D2BE
:1048000082F31188BFF36F8F03B0BDE8F0834FF0E0
:10481000FF384FF0FF39C3E90289D3E900101D606A
:104820004FF48033C4F84833C4F84051D4F84031D1
:1048300082F31188BFF36F8F0029E5D000903246D4
:104840003B4628468847DFE700100140D01600208D
:10485000C8160020D80400201FB5431C23D001280F
:1048600023DD134A134B9042D4BF04461C46FFF786
:1048700087FE114B0F49D3E90023801AB0F5000FD2
:1048800028BF002404448C4228BF0C46A2180B49C0
:1048900000914FF00000CDE9010043F10003FFF764
:1048A00091FE04B010BD034CE1E70124DFE700BF37
:1048B000FEFF7F00FFFF7F00E8040020DD440000D2
:1048C00008B5FFF75DFE024B1B68C01A08BD00BFAC
:1048D000E804002010B5084C012363601120FDF7A7
:1048E00003FF064BC4F80833C4F84833044B4FF4B5
:1048F0000032C3F8802110BD0010014003000F00FA
:1049000000E100E0BFF34F8F0549064BCA6802F48F
:10491000E0621343CB60BFF34F8F00BFFDE700BFE2
:1049200000ED00E00400FA054FF08053D3F8302189
:10493000082A06D1D3F83431052B02D8024AD05CBC
:1049400070470020704700BF1BA20000024AD2F847
:104950000034002BFBD0704700E0014010B54FF051
:104960008053D3F83021082A4ED14FF080420021E5
:10497000C2F80C11C2F81011C2F8381502F5404205
:10498000D3F80414C2F82015D3F80814C2F824157B
:10499000D3F80C14C2F82815D3F81014C2F82C154B
:1049A000D3F81414C2F83015D3F81814C2F834151B
:1049B000D3F81C14C2F84015D3F82014C2F84415DB
:1049C000D3F82414C2F84815D3F82814C2F84C15AB
:1049D000D3F82C14C2F85015D3F83014C2F854157B
:1049E000D3F83414C2F86015D3F83814C2F864153B
:1049F000D3F83C14C2F86815D3F84014C2F86C150B
:104A0000D3F84434C2F87035FFF78EFF18B13F4B2E
:104A10003F4AC3F88C26FFF787FF18B13D4BFB22B6
:104A2000C3F81825FFF780FF70B14FF080414FF0B9
:104A30008053D1F8E42ED3F8583222F00F0203F05D
:104A40000F031343C1F8E43EFFF76EFF20B1324B72
:104A50004FF40072C3F840264FF08053D3F8303142
:104A6000082B1AD14FF08043D3F80024D20744BF5B
:104A70006FF00102C3F800244FF08053D3F83431B3
:104A8000052B02D8254AD35C3BB14FF01023D3F855
:104A900008224FF08043C3F858254FF01021D1F879
:104AA0000C32DB0714D51E480123C0F80435FFF78C
:104AB0004DFFD1F80C3223F00103C1F80C32FFF79F
:104AC00045FF0023C0F80435FFF740FFFFF71AFF4A
:104AD000D1F80032002B03DBD1F80432002B14DABA
:104AE0000F4901234FF01020C1F804351224FFF7BD
:104AF0002DFFC0F80042FFF729FFC0F80442FFF77E
:104B000025FF0023C1F80435DEE710BD005000404A
:104B10004881030000F000400090024015A2000010
:104B200000E0014030B50468CCB1BFF35B8FB4FA4C
:104B300084F3C3F11F03DBB201229A4024EA02028C
:104B400050E8005FA54204D140E8002CBCF1000F02
:104B5000F6D1BFF35B8FE6D102480B7030BD02483F
:104B6000FCE700BF0000AD0B0200AD0B10B5036801
:104B7000CB40DB0714D401238B400268BFF35B8F6B
:104B800043EA020150E8004F944204D140E8001C7F
:104B9000BCF1000FF6D1BFF35B8FEED1014810BD21
:104BA0000148FCE70000AD0B0400AD0B014BC3F85E
:104BB0000405704700F00140F7B5044618B101281C
:104BC00023D003B0F0BD4FF080430222C3F8082386
:104BD000C3F80401D3F804210122DA600646012358
:104BE0008DF8073042F210754FF08047D4B1012C98
:104BF000E7D1D7F80C3403F48033AEBB83B3012084
:104C000004F065FA013DF4D12AE04FF08043002220
:104C1000C3F80803C3F80021D3F8002158600DF150
:104C20000706DCE7D7F8183403F480333EB9002BCD
:104C3000C7D0012004F04BFA013DF3D1C1E7D7F80A
:104C4000182402F003023260002BBAD09DF807004E
:104C5000012803D104F03BFA013DC7D1012CB0D1AA
:104C6000054B00225A71ACE7D7F80C2402F0010280
:104C70003270002BEAD1F3E7D4160020044B1A79E6
:104C800022B9012218609A80024870470248704792
:104C9000D41600200000AD0B0C00AD0B08B50020B1
:104CA000FDF736FD08B9FDF711FD4FF080430022F6
:104CB000C3F81825014B01221A7008BD751B00208E
:104CC00010B54FF08043D3F800216AB10022C3F839
:104CD0000021D3F800210122C3F80823114B587991
:104CE00010B95A711B6898474FF08043D3F80421DC
:104CF00072B10022C3F80421D3F80421D3F8182498
:104D0000D3F81824920704D10122C3F818259A6019
:104D100010BD0222C3F80823024BBDE810401B68F7
:104D200001201847D4160020036803F01F025B0916
:104D3000026004D0012B034818BF002070474FF0D9
:104D4000A040704700030050034A430900F01F00D1
:104D5000D35C1844C0B270472CA2000008B5FFF71E
:104D6000F3FF034B083033F81000C0F3401008BDC8
:104D70006001002008B5FFF7E7FF034B083033F868
:104D80001000C0F3400008BD6001002008B5FFF727
:104D9000DBFF034B083033F81000400B08BD00BFA9
:104DA0006001002070B50546FFF7CEFF0C4C0830BF
:104DB0000E4634F81030DA0508D5C3F3432304EB6C
:104DC000C302284654F8333052689847A3682BB181
:104DD000E26831462846BDE87040184770BD00BF04
:104DE0006001002010B5FFF7AFFF124A083032F81B
:104DF0001030D9051CD5C3F3432123F4F85322F80E
:104E0000103002F10E04002034F8023F13F4807FCA
:104E100003D0C3F3432399420AD001303028F3D1A1
:104E2000002342F831300448BDE81040FFF79EBE31
:104E300010BD00BF60010020D4010020F0B5014684
:104E4000104A114C00200125064602F14043A3F50B
:104E5000C2439B0805FA03F3194204D0176817B13F
:104E60001660176818430432A242EED1074BD3F8FC
:104E70007C2132B10022C3F87C21D3F87C3140F090
:104E80000040F0BD00610040206100400060004033
:104E90002DE9F04385B0054690461E46FFF754FFC6
:104EA000044609B32846FFF765FF18B12846FFF707
:104EB00055FF38BB0023CDE900338DF80E308DF857
:104EC0000F300DF10F020B4628460DF10E0104F0D4
:104ED00048F94A4A04F1080132F8113023F002037C
:104EE00043F0010322F81130B8F1000F31D0284609
:104EF00098F80070D8F80490FFF73CFF20B1B9F1A2
:104F0000000F1BD03E4826E03C4B04F1080C33F860
:104F10001C1021F02001C904C90C23F81C10B9F1A0
:104F2000000F0BD0032FEDD8D8F8042092F800E042
:104F3000A7B9344B0EF5A27E43F82E702F4A04F128
:104F4000080132F8113023F01C0343EA870322F8EA
:104F500011304EBB2C4805B0BDE8F0834FEA8E02FD
:104F600002F1804202F5C04241EA4E31D2F810050A
:104F700020F00300C2F81005D2F8100520F44F30DD
:104F800020F44070C2F81005D2F81085280200F411
:104F90007C5040EA080040EA074041F0200123F835
:104FA0001C10C2F81005C9E7D6E900762846FFF7BD
:104FB00019FF002FCED0114DD5E90023974201D122
:104FC0009E4218D011480DF10F01FFF7ABFD0E4BBB
:104FD0009842C0D19DF80F2045F8327005EBC2030E
:104FE00008345E6035F8143043EA422343F480739A
:104FF00025F81430AEE70022EEE700BF6001002084
:105000000400AD0B006000400000AD0BD401002097
:105010002DE9FF4104461646FFF796FE054631B3DB
:105020002046FFF7A7FE20B92046FFF797FE00288D
:1050300060D1314F05F1080837F8183013F01C0F14
:1050400002D04B78012B55D001238DF80F3000236F
:10505000CDE900134A1C8B1C20460DF10F0104F012
:1050600080F837F8183043F0030327F818301EB9DA
:10507000224804B0BDE8F0812046FFF77BFEC8B3AC
:105080001D4F96F800C005F10800614637F8105032
:10509000890025F0200501F18041ED0401F5C041B2
:1050A000ED0C27F810500023C1F810357278002A53
:1050B000DED0D1F81035B67823F4991323F4F853E1
:1050C000C1F8103512042302D1F810E502F4403281
:1050D00003F47C531343320543EA0E0302F48012B7
:1050E00045EA4C35134345F0200527F81050C1F828
:1050F0001035BDE70248BCE7600100200000AD0BA1
:105100000400AD0B014BC3E90201704760010020B0
:1051100010B50446FFF722FE50B12046FFF714FEFB
:10512000044B083033F8103003485B0B0B7010BD94
:105130000248FCE7600100200000AD0B0400AD0B4D
:1051400070B50F4C94F87860BEB90E4D60223146B0
:1051500004F1100004F058FCC5F87C610620D5F875
:105160007C31FDF7B3FA4FF00043C5F8043306482D
:10517000012384F87830636770BD0448FCE700BF02
:1051800060010020006000400000AD0B0500AD0B89
:10519000034B93F87800003818BF0120704700BF18
:1051A0006001002001460148FFF7E0BCD00100206B
:1051B00001460148FFF7B6BCD001002037B50446D0
:1051C000FFF7CCFD08B32046FFF7D4FD0546E0B954
:1051D0002046FFF7DBFD03B29B0003F1804202F59E
:1051E000C24203F1804303F5C04315601268D3F84F
:1051F000102542F00102C3F8102521B1144A012301
:105200008340C2F8043303B030BD2046FFF79CFD55
:10521000104B083033F81030C3F38203042B12D044
:10522000052B12D001A80194FFF77EFD019BD0F859
:105230001015D94001F001010231204603B0BDE84C
:10524000304003F0D7BF0321F7E70221F5E700BFA5
:10525000006000406001002010B50446FFF77EFDAD
:10526000C0B12046FFF786FDA0B92046FFF78EFDAE
:105270000B4A01238340C2F8083303B29B0003F1B9
:10528000804303F5C043D3F8102522F00302C3F88E
:10529000102510BD20460021BDE8104003F0AABF34
:1052A0000060004073B50446FFF74EFD184E00F154
:1052B000080536F81530DB0727D52046FFF7CCFF69
:1052C0002046FFF74BFD40B12046FFF75FFD114B35
:1052D00000F5A270002243F820202046FFF782FD4F
:1052E000002301A826F815300194FFF71DFD019B4E
:1052F00000EB8300084BD0F80027134043F0020373
:10530000C0F80037054802B070BD0548FBE700BF94
:105310006001002000600040F0F8FCFF0000AD0BD1
:105320000400AD0B2DE9F04F644BD3F80403C0B279
:1053300085B040F00040FFF781FD051E80F2A1809E
:105340004FF0A043D3F820250292C3F82025D3F8CC
:1053500020280392C3F820280DF108084FF0000917
:10536000574B09EB030B4FE093FAA3FA9BF800406D
:10537000BAFA8AFA4AEA44142046FFF7E5FC514B90
:10538000019408304FEADA0233F810700AF007038C
:105390000120984018F8023023EA000308F8023090
:1053A00001A8FFF7C1FC019B03F5E073B90850F8B1
:1053B0002330C7F38206C3F3014A4B0737462FD584
:1053C00020463146FFF7EEFC01A80194FFF7ACFC44
:1053D000019B03F5E0735FFA8AFA50F82330C3F3B8
:1053E00001439A4507D10021204603F003FF5146AF
:1053F000204603F0FFFE01A80194FFF795FC019AF7
:1054000001239340C0F82035D8F80030002BABD1F1
:1054100008F10408B9F1000F1DD14FF001099FE711
:10542000BAF1020F0CD10321204603F0E3FE06F08F
:105430000503012BDFD139462046FFF7B3FCDAE73D
:105440000221204603F0D6FE032EF4D0BAF1030F5A
:10545000D1D1022EEEE74FF00040FFF7EFFC4FF006
:10546000A0421949D2F820350293C2F82035D1F86C
:10547000202503921343C1F820257FF46DAF25F05A
:105480000045012415B905B0BDE8F08F95FAA5F3E4
:10549000B3FA83F304FA03F29B0003F1804303F5AC
:1054A000C04325EA0205D3F81005D3F81015C0F360
:1054B0000520C1F30141FFF775FCE3E70060004000
:1054C0003CA20000600100200003005010B5184C01
:1054D000237853BB0278C2F34003920712D54FF0F2
:1054E0008053D3F83021082A0BD1D3F83431052B5F
:1054F00007D8104AD35C23B14FF080430122C3F890
:10550000382601234FF08042C2F88035037803F03B
:105510000103C2F878350020FDF7FAF808B9FDF765
:10552000D5F801230448237010BD0448FCE700BFF0
:10553000761B00204AA200000000AD0B0C00AD0B52
:105540004FF080434FF46072C3F80823014B0022F0
:105550001A607047DC16002008B5FFF7F1FF0368FA
:105560000BB1014A136008BDDC16002010B54FF0E6
:105570008043D3F80443620707D54FF4847003F0E7
:1055800048FE10B11E4B1B689847A30608D54FF480
:105590008A7003F03EFE18B11A4B00201B68984732
:1055A000600608D54FF48C7003F033FE18B1154B2C
:1055B00001201B689847210608D54FF48E7003F030
:1055C00028FE18B1104B00201B689847E20508D54B
:1055D0004FF4907003F01DFE18B10B4B01201B68B7
:1055E0009847A3050AD54FF4927003F012FE28B134
:1055F000054BBDE810401B680220184710BD00BFD6
:10560000E4160020E0160020DC16002001460148C8
:10561000FFF788BADC0100204FF08053D3F8302127
:10562000082A06D1D3F83431052B04D8034AD05CBC
:105630007047002070470120704700BF59A200004A
:10564000054B10F0800FA3F1900208BF134600F045
:105650000F0003EB001070479018002007B5074AB1
:1056600000231370064A137001230193054B01A810
:105670001B68984703B05DF804FB00BF7A1B00204D
:10568000791B00202819002013B5194BD3F80044CA
:10569000C3F80044E105D3F8003408D5154B0122C6
:1056A0001A7002230193144B01A81B689847A205A6
:1056B00008D5104B00221A70032301930E4B01A84A
:1056C0001B689847630510D50A4B1A786AB1002207
:1056D0001A70074B0122C3F808259A659B6D0423B5
:1056E0000193054B01A81B68984702B010BD00BF8D
:1056F000007002407A1B0020281900204FF0200380
:10570000EFF3118083F31288BFF36F8F0A4BD3F846
:10571000001C032261B949F27531C3F8001CC3F8BB
:10572000142DC3F8001C80F31188BFF36F8F7047EE
:10573000C3F8142DF7E700BF00E006404FF0200348
:10574000EFF3118083F31288BFF36F8F0A4BD3F806
:10575000001C61B949F27532C3F8002CC3F8141D5E
:10576000C3F8002C80F31188BFF36F8F70470022BD
:10577000C3F8142DF6E700BF00E00640F8B54B680B
:105780000B4F9A4228BF1A460C4615460646096832
:105790004023384604F040F9C6E900756068236884
:1057A000401B2B4460602360003818BF0120F8BD07
:1057B000E816002070B54B689A4228BF1A46064684
:1057C0000D4614468AB140230968094804F024F9BB
:1057D000074BC6E900346B681B1B6B602B682344C6
:1057E000201E2B6018BF012070BD1346F1E700BFDB
:1057F000E816002007B500238DF804300B4BD3F8D2
:105800002025ADF80620D3F8C034094A002B1368D0
:1058100014BF4FF001214FF480710B431360054B0F
:1058200001A81B68984703B05DF804FB00700240B4
:105830002419002028190020064BBFF35B8F53E882
:10584000001F014043E80012002AF8D1BFF35B8F2C
:10585000704700BF201900204FF08053D3F830313B
:10586000082B02BF034B0022C3F81C2C024B002262
:105870001A70704700700240781B002008B5FFF7CF
:10588000EBFF084B93F89E20032A05D1BDE80840A2
:105890006FF00100FFF7D0BFD3F89030002BF5D0A8
:1058A00008BD00BF0018002073B5012202FA01F5FF
:1058B0001C491D4E0B6810F0800F43EA0503044697
:1058C0000B6024D000F00F02184B33F8123003F1B4
:1058D000804303F51C331A6832B100221A60802815
:1058E0001B6811D003F0FDFC33682B400AD106225F
:1058F0008DF804208DF806408DF807300C4B01A878
:105900001B68984702B070BDFFF7B8FFECE733683B
:105910001D42F7D106238DF804308DF806008DF86E
:105920000720EBE7241900202019002066A00000C2
:105930002819002008B5054B1A78104603F0C8FC5A
:10594000BDE8084001461046FFF7AEBF791B0020B6
:1059500007B5FFF781FF0C4B93F88E20032A10D078
:10596000D3F880306BB96FF08070FFF765FF0623C6
:105970008DF804300823ADF80630044B01A81B68ED
:10598000984703B05DF804FB001800202819002098
:1059900007B5FFF761FF104B93F81E21032A06D1CC
:1059A0006FF4807003B05DF804EBFFF745BFD3F8E8
:1059B00010316BB96FF48070FFF73EFF06238DF84E
:1059C00004308823ADF80630044B01A81B689847C3
:1059D00003B05DF804FB00BF001800202819002068
:1059E000024A00231360024A1370704728190020EE
:1059F0007B1B002008B54E4B4FF40062C3F8002417
:105A0000D3F80034FFF708FE08B1FFF777FE4FF038
:105A10008053D3F83031082B19D14FF02003EFF326
:105A2000118083F31288BFF36F8F424BD3F8001CB1
:105A3000C022002973D149F27531C3F8001CC3F8A4
:105A4000142CC3F8001C80F31188BFF36F8F384B00
:105A50000122C3F80025D3F80025D3F8002412054D
:105A6000FBD54FF40062C3F80024D3F800344FF0A4
:105A70008053D3F83031082B18D14FF02003EFF3C7
:105A8000118083F31288BFF36F8F2A4BD3F8001C69
:105A9000002947D149F27532C3F8002CC3F8141C11
:105AA000C3F8002C80F31188BFF36F8FFFF7B4FDAC
:105AB00030B1FFF743FEFFF7AFFD08B1FFF71EFE61
:105AC0004FF08053D3F83031082B194B0AD140F2F4
:105AD000E372C3F800284022C3F80428BFF36F8F95
:105AE000BFF34F8F8022C3F81C250122C3F8302555
:105AF000114B40F2FF121A60104B00211960104B3D
:105B00001970FFF7A9FE0F4B19700F4B02221A7084
:105B1000FFF782FD50B1BDE80840FFF70FBEC3F8A4
:105B2000142C90E70022C3F8142CBBE708BD00BF7B
:105B30000070024000E006402419002020190020D7
:105B4000771B0020791B00207B1B00200A4B0022C2
:105B500010B51A70094A0A4B0A4C002808BF1346B0
:105B6000C4F804332720FCF7B1FD0123C4F8043541
:105B7000D4F8043510BD00BF7A1B00200714C00103
:105B80000714E00100700240034B1878012894BF0D
:105B900000200120704700BF7B1B002010B54FF094
:105BA0002003EFF3118183F31288BFF36F8F0F4B44
:105BB0001B7803F0FF0093B10D4BD3F8002412F4CF
:105BC00000720CD10124C3F82C45D3F82C45D3F82E
:105BD0000044A40504D5C3F82C25D3F82C350020A7
:105BE00081F31188BFF36F8F10BD00BF7A1B0020B7
:105BF00000700240F8B51C4B1C7894BB1B4A106027
:105C000001221A7040F2FF17264664F07F0514F057
:105C1000080FEDB214BF39464021284603F090FB2F
:105C20002846FFF70DFD0134092C86730660866057
:105C3000EBD1002440F2FF17254614F0080FE6B21E
:105C400014BF39464021304603F07AFB3046FFF757
:105C5000F7FC0134092C857305608560EDD104489B
:105C6000F8BD0448FCE700BF7B1B0020281900207A
:105C70000000AD0B0500AD0B2DE9F84304464FF0D5
:105C80002003EFF3118683F31288BFF36F8F10F0B8
:105C90000F0903D1274B1B78834247D1264B274F4F
:105CA0001A683B68D24392B220461A4303F010FBB5
:105CB0004FF0010808FA00F812EA080F38D1204620
:105CC000FFF7BEFC0C232206054603FB09F329D58A
:105CD0000A68886802F06042B2F1005F00F00100DB
:105CE0001DD1174A174C002808BF22461648034406
:105CF0002A6007C983E807006B600023AB60AB73C1
:105D00003B68124843EA08033B60114B8022C3F80A
:105D1000042186F31188BFF36F8FBDE8F8830D4A25
:105D20000D4CE0E70D4A13440D4AE1E70D48F0E75A
:105D30000D48EEE7791B00202419002020190020CF
:105D4000A992000087920000941700200000AD0B7C
:105D500000E100E0B55700007D5700002817002043
:105D6000559200000A00AD0B0B00AD0B10F0080FB0
:105D7000074B06D0D3F8C00410F4803F18BF0020B2
:105D8000704700F00F0000F5947053F82000704742
:105D9000007002402DE9F04F664E337885B0002B3D
:105DA0007CD1DFF89481654DD8F800402B681C4009
:105DB00074D014F0012314BF93FAA3F494FAA4F45A
:105DC000B4FA84F44FF0010909FA04F90F2C6FEAD0
:105DD000090966D9103CE4B22046FFF731FC82463F
:105DE0002046FFF7C3FFDAF80070BAF80C20DAF8A3
:105DF00004100346834602A8B847029B002B5CD1DF
:105E000008B9CAF800004FF0805362B2D3F83031BD
:105E1000082B02BF4A4B8221C3F81C1C012333709C
:105E20002B68039903EA09032B60DAF80830029D16
:105E30000B44002ACAF8083004F00800404B04F074
:105E40000F0457DA00284DD0C3F8A056C3F8A416A3
:105E5000042303EB840303F1804303F51C33012186
:105E600019601B683749384B13EA220338BF0B46C9
:105E700033F8143003F1804303F51C33196800290B
:105E8000FCD0002A2E4B4ADA002842D0D3F8A8369C
:105E90002E4A117803F001034B40137005B0BDE8A2
:105EA000F08F44F080042046FFF7CAFB0368828924
:105EB0004168824602A89847A2E7039B9B459FD969
:105EC000022748468AF80E70FFF7B6FC06238DF8C5
:105ED00004301F4B8DF806401B688DF8077001A831
:105EE000984761E7142606FB0433C3F80056C3F84D
:105EF0000416ADE728B1C3F8A057C3F8A4172823A8
:105F0000A7E7142606FB0433C3F80057C3F80417A9
:105F1000F5E7142202FB0433D3F80836B8E710B1D2
:105F2000D3F8A837B4E7142202FB0433D3F80837B8
:105F3000AEE700BF781B00202019002024190020A4
:105F40000070024054A0000066A00000771B0020F3
:105F50002819002038B50F4BD3F86C44C3F86C44B3
:105F600001251CB9BDE83840FFF714BF94FAA4F32B
:105F7000B3FA83F30F2BC8BFA3F110001946D4BFA7
:105F800043F08000C0B205FA03F324EA0304FFF7EC
:105F90008BFCE6E70070024037B5FFF75DFC044676
:105FA000FFF74EFB837B032B0DD1204603F090F9C6
:105FB000012303FA00F0C043FFF73EFC03B0BDE845
:105FC0003040FFF7E7BE0568002DF7D1204603F00B
:105FD0007FF9012303FA00F0C043FFF72DFC0623ED
:105FE0008DF80430044B8DF806401B688DF807507F
:105FF00001A89847E2E700BF28190020024B40F4AF
:106000008070C3F81805704700700240020713D46F
:1060100000F00F0310F0800F084A0BBF03F58873E0
:1060200003F5847302EB830252F8230008BF506823
:10603000431E58425841704700207047007002408C
:10604000044BC3F80C0540F48070C3F80C05D3F87A
:106050000C357047007002400023036043600E4B14
:10606000D3F880240270D3F884244270D3F88824B3
:10607000D3F88C1442EA01224280D3F89024D3F85A
:10608000941442EA01228280D3F89824D3F89C34F5
:1060900042EA0323C380704700700240024B012292
:1060A000DA64DB6C704700BF0070024013B5FFF785
:1060B000D3FB104B9A7B032A06D16FF4803002B0D9
:1060C000BDE81040FFF7B8BB1C6874B96FF48030AE
:1060D000FFF7B2FB06238DF80430074BADF80640FE
:1060E0001B6801A8984702B010BD02B0BDE810407F
:1060F000FFF7D4BF0018002028190020024B01220E
:106100001A651B6D704700BF00700240024B0122F0
:106110005A655B6D704700BF00700240014B1878F4
:10612000704700BF791B002010B502464FF02003D6
:10613000EFF3118483F31288BFF36F8F03F0C8F875
:106140000D49012303FA00F00B6823EA00030B60FA
:1061500012F008010AD102F00F039B0003F1804303
:1061600003F51C33C3F8A014D3F8A03484F31188CA
:10617000BFF36F8F10BD00BF24190020F7B5014693
:106180004FF02003EFF3118583F31288BFF36F8F75
:10619000FFF756FA0646084603F09AF8012211F076
:1061A000800F02FA00F22E4819D1036832EA030385
:1061B0000AD00846FFF7B8FF0323B37385F31188AD
:1061C000BFF36F8F03B0F0BD33600368254923EA46
:1061D000020303600B6823EA02030B60ECE70B0782
:1061E00015D48029204B2FD001F00F0404F2DA34AB
:1061F0006400C3F80048D3F80448D3F80478E4B244
:1062000044F002043C43C3F80448D3F80438154F63
:1062100004683B6864EA030C1CEA020FCED0134307
:1062200024EA02043B600023046033600323B37359
:106230008DF807300D4B8DF8061006221B688DF87F
:10624000042001A89847B9E740F2B474C3F80048A5
:10625000D3F80448D3F80478E4B244F00404D1E756
:106260002019002024190020007002402819002065
:1062700073B5144B144CD3F880542368134EDA438F
:10628000134B31781B6892B208461A4303F020F88A
:1062900001238340134202D00846FFF76FFF25F029
:1062A0007F056FF001103570FFF7C6FA236843F0E1
:1062B0000103236005230193064B01A81B6898473F
:1062C00002B070BD0070024024190020791B00202C
:1062D00020190020281900202DE9F0411A4BD3F88D
:1062E0000403002301241D4670B9184F03F400066F
:1062F00023F400044FF00108BCB9FFF74BFD06B3CF
:10630000BDE8F041FFF7B4BF90FAA0F2B2FA82F212
:106310000F499600314404FA02F20E6816B10D607E
:106320000968134320EA0200DEE794FAA4F5B5FAFF
:1063300085F557F8253008FA05F5984724EA05044D
:10634000DAE7BDE8F08100BF007002404C9F00001A
:1063500000710240F8B51B4B8022C3F8842127202E
:10636000FCF7D6F9B8B1184E184B34681B68240CEA
:1063700024041C4301277CB9154D40F2FF13336000
:106380002720C5F80445D5F80435FCF7ADF94FF0E2
:10639000FF33C5F80833F8BD94FAA4F5B5FA85F5CE
:1063A0000F2D2846C6BFA5F11000C0B240F08000F6
:1063B000030701D4FFF7E2FE07FA05F524EA050416
:1063C000D9E700BF00E100E02419002020190020D7
:1063D0000070024008B5FFF7BDFF134BD3F804234C
:1063E000C3F80823114A117889B10021C3F80811B4
:1063F000D3F80811C3F800260121C3F80416596028
:106400005968D3F808110029FBD000231370064BFC
:106410000022C3F80025D3F80035FFF71DFA044B1E
:1064200001221A7008BD00BF00700240771B0020D7
:106430007B1B002010B50446FFF7A0FE104A14F0A5
:10644000800F04F00F004FF0010314BFD2F81015B5
:10645000D2F8141503FA00F36FEA030315BF0B40DB
:106460000B40C2F81035C2F8143514BF054B064B6B
:106470001A5C01239340024AC2F8083310BD00BFE2
:106480000070024068A200005FA2000010F0800FC0
:1064900070B52449044600F00F034FF0010512D0F7
:1064A000214AD25C05FA02F2C1F80423D1F8102582
:1064B000DA40D00706D4D1F8102505FA03F31343C8
:1064C000C1F8103570BD194AD25C05FA02F2C1F864
:1064D0000423D1F81425DA40D207F3D4D1F8146597
:1064E00005FA03F23243C1F81425002BEAD0030762
:1064F000E8D44FF02003EFF3118683F31288BFF343
:106500006F8FFFF711FE204602F0E2FE084A136883
:1065100005FA00F023EA0003136086F31188BFF345
:106520006F8FCFE70070024068A200005FA20000FA
:1065300020190020030610B5044605D4FFF766FDB8
:1065400010B12046FFF7F0FD014BC3F8184510BD10
:106550000070024038B503464FF02002EFF311857A
:1065600082F31288BFF36F8F03F090FA064A145833
:10657000184602F09CFD85F31188BFF36F8F20460B
:10658000BDE83840FCF7E6BB08000000104B70B5D2
:1065900053F82040013053F82060A64200D870BD67
:1065A000D4E9003595B153B12846984738B1002851
:1065B000B8BF4042EB68FF28A8BFFF201870EA6808
:1065C000537843F0010353700834E6E79847FBE73C
:1065D000B49F000008B50A4B012203201A70FFF790
:1065E000D5FF01F04FF90420FFF7D0FF00F078F954
:1065F000FAF7F8FE034A137B23F00103137308BD77
:106600007C1B00207805002008B50348034A0021C0
:10661000121A02F0D8FE08BD98030020801B00204B
:1066200070B5002386B00122CDE90423194E1A4D1E
:1066300001930F22CDE902321849142303FB0055C0
:1066400006EBC01604464FF4C070154B00954FF48E
:10665000A07200FB0411304600F0D6F8737B114A9B
:10666000EE6023F0040373734FF4046304FB0333FD
:1066700013446B600C4B2C74BFF35B8F53E8001F0B
:10668000013143E80012002AF8D1BFF35B8F06B056
:1066900070BD00BFF804002030190020402C0020FD
:1066A00079940000002400202C19002080B50020DF
:1066B000A6B0FFF76BFF2D4B83F308882C4D2D4EB2
:1066C0006B692D4F43F400736B610024E02385F860
:1066D0002230EC772C766C76AC7685F820406B6AAD
:1066E00043F4E0236B6285F82340FCF795FAFBF74F
:1066F000CDFF4FF0FF33AB62EB62FCF7D9FBFCF749
:106700003FFB40F20113ADF8243006ABB360CDE996
:106710001E44219402F04BFE0120FFF737FF0220B8
:10672000164DFFF733FF00F0FDFD154B7561059326
:10673000012314490094CDE903434FF480623B46A2
:10674000CDE90144284600F05FF86A7B064622F056
:10675000040228466A7302F0C8FF2046FFF760FF74
:106760003A4631462846FCF7A7F800BF402C0020E7
:1067700000ED00E030190020D5650000780500200C
:106780007BA20000C02D002038B5064C064D00202D
:10679000AC4200D338BD204602F019FE0028F9DBD8
:1067A0001C34F5E7540200207002002073B50C463B
:1067B0004FF02005EFF3118185F31288BFF36F8F3F
:1067C00045695DB125602B6843618369013383614D
:1067D000002081F31188BFF36F8F11E052EA0306A6
:1067E00003D125606FF00B00F3E7CDE900230246EB
:1067F000083000F0A1FC18B9024B9B685B6923606C
:1068000002B070BD301900202DE9F04385B0073289
:10681000994600F1580322F00706C0E91633109B91
:10682000037306F140050423002743730D440F9BB7
:1068300083738846C0E9067729468760C773044694
:10684000FCF76AF808F140030730C4E9183620F075
:1068500007000E9BA06602930D9B01932D1A0C9BC3
:1068600000932A464B4641462046FBF7F3FF054B73
:1068700067659B6803B1DB6EE366284605B0BDE83B
:10688000F08300BF30190020F0B587B000250595D2
:10689000109D04950F9D03950E9D0295DDE91276DE
:1068A0000D9D01950C9D00950446FFF7ADFFB6F1D7
:1068B000FF3F08BFB7F1FF3F05D056EA070305D1F8
:1068C000204600F0AFFC204607B0F0BD03493A4631
:1068D000334604F1180000F0BBFEF4E74F970000C8
:1068E0002DE9F043294C2A4D87B02646AE4204F1EB
:1068F0002C040FD300F0E6FC244CDFF898904FF402
:10690000004640F2E737AC4220D307B0BDE8F04381
:1069100000F0ECBC54F8043C059354F80C3C049390
:1069200054F8103C039354F8143C029354F8183C68
:10693000019354F81C3C009354E9092354E90B01DA
:10694000FFF762FF54F82C3C5E65CEE7636A5A1C81
:106950000DD023EAE37300213846C3FB060151EA58
:10696000C333D4F8008004D1404600F05BFC2C34E3
:10697000C9E74FF47A720023FAF7C2FB02460B46CE
:1069800008F11800494600F063FEF0E70C9D000096
:106990000C9D00004F9700002DE9F3410446174677
:1069A0001E464FF02003EFF3118883F31288BFF3E4
:1069B0006F8FC368334A7BB180689168884219D071
:1069C00057EA060318D188F31188BFF36F8F6FF071
:1069D0000F0002B0BDE8F081916891F90E102161BD
:1069E0000133E3609368A36088F31188BFF36F8F6E
:1069F0000020EEE72169F2E791F90E1090F90E30D0
:106A00009942A8BF19466FF07E029142B8BF114665
:106A10008B422EDD02F03CFD0546CDE900761A489A
:106A20002246414600F088FB0028E1D04FF02003C9
:106A3000EFF3118683F31288BFF36F8FA068D0B194
:106A4000236821699C420AD04BB193F90E309942D8
:106A5000A8BF19466FF07E039942B8BF194602F0ED
:106A600017FD40B10848314600F0CAFB6FF00A003C
:106A7000AFE70025D1E7002DF4D186F31188BFF3ED
:106A80006F8FF3E7301900207D1B002038B5836835
:106A900004466BB3194A926893422CD1C368012B08
:106AA00003D9013BC360002038BD4FF02003EFF352
:106AB000118583F31288BFF36F8F0169806802F03C
:106AC000E7FC204602F047FEA06058B190F90E2086
:106AD00022610022826702F008FE0948294600F080
